{
  "contractName": "CoinFlip",
  "abi": [
    {
      "inputs": [],
      "payable": false,
      "stateMutability": "nonpayable",
      "type": "constructor"
    },
    {
      "anonymous": false,
      "inputs": [
        {
          "indexed": false,
          "internalType": "address",
          "name": "userAddress",
          "type": "address"
        },
        {
          "indexed": false,
          "internalType": "bool",
          "name": "wonFlag",
          "type": "bool"
        }
      ],
      "name": "betResults",
      "type": "event"
    },
    {
      "anonymous": false,
      "inputs": [
        {
          "indexed": false,
          "internalType": "string",
          "name": "message",
          "type": "string"
        }
      ],
      "name": "errorMessage",
      "type": "event"
    },
    {
      "constant": true,
      "inputs": [
        {
          "internalType": "bytes32",
          "name": "",
          "type": "bytes32"
        }
      ],
      "name": "userAddressMap",
      "outputs": [
        {
          "internalType": "address",
          "name": "",
          "type": "address"
        }
      ],
      "payable": false,
      "stateMutability": "view",
      "type": "function"
    },
    {
      "constant": true,
      "inputs": [
        {
          "internalType": "address",
          "name": "",
          "type": "address"
        }
      ],
      "name": "userDataMap",
      "outputs": [
        {
          "internalType": "bool",
          "name": "headTailFlag",
          "type": "bool"
        },
        {
          "internalType": "uint256",
          "name": "betValue",
          "type": "uint256"
        }
      ],
      "payable": false,
      "stateMutability": "view",
      "type": "function"
    },
    {
      "constant": false,
      "inputs": [
        {
          "internalType": "bytes32",
          "name": "_myid",
          "type": "bytes32"
        },
        {
          "internalType": "string",
          "name": "_result",
          "type": "string"
        }
      ],
      "name": "__callback",
      "outputs": [],
      "payable": false,
      "stateMutability": "nonpayable",
      "type": "function"
    },
    {
      "constant": false,
      "inputs": [
        {
          "internalType": "bytes32",
          "name": "inQueryId",
          "type": "bytes32"
        },
        {
          "internalType": "string",
          "name": "inResult",
          "type": "string"
        },
        {
          "internalType": "bytes",
          "name": "inProof",
          "type": "bytes"
        }
      ],
      "name": "__callback",
      "outputs": [],
      "payable": false,
      "stateMutability": "nonpayable",
      "type": "function"
    },
    {
      "constant": false,
      "inputs": [
        {
          "internalType": "bool",
          "name": "inHeadTailFlag",
          "type": "bool"
        }
      ],
      "name": "bet",
      "outputs": [
        {
          "internalType": "bool",
          "name": "successFlag",
          "type": "bool"
        }
      ],
      "payable": true,
      "stateMutability": "payable",
      "type": "function"
    },
    {
      "constant": false,
      "inputs": [],
      "name": "depositETH",
      "outputs": [],
      "payable": true,
      "stateMutability": "payable",
      "type": "function"
    }
  ],
  "bytecode": "0x60806040523480156200001157600080fd5b5062000027603060f81b6200002d60201b60201c565b62000a4e565b600073ffffffffffffffffffffffffffffffffffffffff16600160009054906101000a900473ffffffffffffffffffffffffffffffffffffffff1673ffffffffffffffffffffffffffffffffffffffff161480620000bd57506000620000bb600160009054906101000a900473ffffffffffffffffffffffffffffffffffffffff166200039060201b60201c565b145b15620000d757620000d560006200039b60201b60201c565b505b600160009054906101000a900473ffffffffffffffffffffffffffffffffffffffff1673ffffffffffffffffffffffffffffffffffffffff166338cc48316040518163ffffffff1660e01b8152600401602060405180830381600087803b1580156200014257600080fd5b505af115801562000157573d6000803e3d6000fd5b505050506040513d60208110156200016e57600080fd5b810190808051906020019092919050505073ffffffffffffffffffffffffffffffffffffffff166000809054906101000a900473ffffffffffffffffffffffffffffffffffffffff1673ffffffffffffffffffffffffffffffffffffffff1614620002bb57600160009054906101000a900473ffffffffffffffffffffffffffffffffffffffff1673ffffffffffffffffffffffffffffffffffffffff166338cc48316040518163ffffffff1660e01b8152600401602060405180830381600087803b1580156200023e57600080fd5b505af115801562000253573d6000803e3d6000fd5b505050506040513d60208110156200026a57600080fd5b81019080805190602001909291905050506000806101000a81548173ffffffffffffffffffffffffffffffffffffffff021916908373ffffffffffffffffffffffffffffffffffffffff1602179055505b6000809054906101000a900473ffffffffffffffffffffffffffffffffffffffff1673ffffffffffffffffffffffffffffffffffffffff1663688dcfd7826040518263ffffffff1660e01b815260040180827effffffffffffffffffffffffffffffffffffffffffffffffffffffffffffff19167effffffffffffffffffffffffffffffffffffffffffffffffffffffffffffff19168152602001915050600060405180830381600087803b1580156200037457600080fd5b505af115801562000389573d6000803e3d6000fd5b5050505050565b6000813b9050919050565b6000620003ad620003b460201b60201c565b9050919050565b600080620003dc731d3b2638a7cc9f2cb3d298a3da7a90b67e5506ed6200039060201b60201c565b11156200048857731d3b2638a7cc9f2cb3d298a3da7a90b67e5506ed600160006101000a81548173ffffffffffffffffffffffffffffffffffffffff021916908373ffffffffffffffffffffffffffffffffffffffff1602179055506200047e6040518060400160405280600b81526020017f6574685f6d61696e6e65740000000000000000000000000000000000000000008152506200098360201b60201c565b6001905062000980565b6000620004af73c03a2615d5efaf5f49f60b7bb6583eaec212fdf16200039060201b60201c565b11156200055b5773c03a2615d5efaf5f49f60b7bb6583eaec212fdf1600160006101000a81548173ffffffffffffffffffffffffffffffffffffffff021916908373ffffffffffffffffffffffffffffffffffffffff160217905550620005516040518060400160405280600c81526020017f6574685f726f707374656e3300000000000000000000000000000000000000008152506200098360201b60201c565b6001905062000980565b60006200058273b7a07bcf2ba2f2703b24c0691b5278999c59ac7e6200039060201b60201c565b11156200062e5773b7a07bcf2ba2f2703b24c0691b5278999c59ac7e600160006101000a81548173ffffffffffffffffffffffffffffffffffffffff021916908373ffffffffffffffffffffffffffffffffffffffff160217905550620006246040518060400160405280600981526020017f6574685f6b6f76616e00000000000000000000000000000000000000000000008152506200098360201b60201c565b6001905062000980565b60006200065573146500cfd35b22e4a392fe0adc06de1a1368ed486200039060201b60201c565b1115620007015773146500cfd35b22e4a392fe0adc06de1a1368ed48600160006101000a81548173ffffffffffffffffffffffffffffffffffffffff021916908373ffffffffffffffffffffffffffffffffffffffff160217905550620006f76040518060400160405280600b81526020017f6574685f72696e6b6562790000000000000000000000000000000000000000008152506200098360201b60201c565b6001905062000980565b60006200072873a2998efd205fb9d4b4963afb70778d6354ad3a416200039060201b60201c565b1115620007d45773a2998efd205fb9d4b4963afb70778d6354ad3a41600160006101000a81548173ffffffffffffffffffffffffffffffffffffffff021916908373ffffffffffffffffffffffffffffffffffffffff160217905550620007ca6040518060400160405280600a81526020017f6574685f676f65726c69000000000000000000000000000000000000000000008152506200098360201b60201c565b6001905062000980565b6000620007fb736f485c8bf6fc43ea212e93bbf8ce046c7f1cb4756200039060201b60201c565b11156200086157736f485c8bf6fc43ea212e93bbf8ce046c7f1cb475600160006101000a81548173ffffffffffffffffffffffffffffffffffffffff021916908373ffffffffffffffffffffffffffffffffffffffff1602179055506001905062000980565b6000620008887320e12a1f859b3feae5fb2a0a32c18f5a65555bbf6200039060201b60201c565b1115620008ee577320e12a1f859b3feae5fb2a0a32c18f5a65555bbf600160006101000a81548173ffffffffffffffffffffffffffffffffffffffff021916908373ffffffffffffffffffffffffffffffffffffffff1602179055506001905062000980565b6000620009157351efaf4c8b3c9afbd5ab9f4bbc82784ab6ef8faa6200039060201b60201c565b11156200097b577351efaf4c8b3c9afbd5ab9f4bbc82784ab6ef8faa600160006101000a81548173ffffffffffffffffffffffffffffffffffffffff021916908373ffffffffffffffffffffffffffffffffffffffff1602179055506001905062000980565b600090505b90565b80600290805190602001906200099b9291906200099f565b5050565b828054600181600116156101000203166002900490600052602060002090601f016020900481019282601f10620009e257805160ff191683800117855562000a13565b8280016001018555821562000a13579182015b8281111562000a12578251825591602001919060010190620009f5565b5b50905062000a22919062000a26565b5090565b62000a4b91905b8082111562000a4757600081600090555060010162000a2d565b5090565b90565b61390e8062000a5e6000396000f3fe6080604052600436106100555760003560e01c806327dc297e1461005a57806338bbfa501461012c578063523afb0d14610295578063560d7a27146102dd5780638e9ca7a114610358578063f6326fb3146103c8575b600080fd5b34801561006657600080fd5b5061012a6004803603604081101561007d57600080fd5b8101908080359060200190929190803590602001906401000000008111156100a457600080fd5b8201836020820111156100b657600080fd5b803590602001918460018302840111640100000000831117156100d857600080fd5b91908080601f016020809104026020016040519081016040528093929190818152602001838380828437600081840152601f19601f8201169050808301925050505050505091929192905050506103d2565b005b34801561013857600080fd5b506102936004803603606081101561014f57600080fd5b81019080803590602001909291908035906020019064010000000081111561017657600080fd5b82018360208201111561018857600080fd5b803590602001918460018302840111640100000000831117156101aa57600080fd5b91908080601f016020809104026020016040519081016040528093929190818152602001838380828437600081840152601f19601f8201169050808301925050505050505091929192908035906020019064010000000081111561020d57600080fd5b82018360208201111561021f57600080fd5b8035906020019184600183028401116401000000008311171561024157600080fd5b91908080601f016020809104026020016040519081016040528093929190818152602001838380828437600081840152601f19601f820116905080830192505050505050509192919290505050610415565b005b6102c3600480360360208110156102ab57600080fd5b81019080803515159060200190929190505050610571565b604051808215151515815260200191505060405180910390f35b3480156102e957600080fd5b506103166004803603602081101561030057600080fd5b810190808035906020019092919050505061075f565b604051808273ffffffffffffffffffffffffffffffffffffffff1673ffffffffffffffffffffffffffffffffffffffff16815260200191505060405180910390f35b34801561036457600080fd5b506103a76004803603602081101561037b57600080fd5b81019080803573ffffffffffffffffffffffffffffffffffffffff169060200190929190505050610792565b60405180831515151581526020018281526020019250505060405180910390f35b6103d06107c3565b005b610411828260006040519080825280601f01601f19166020018201604052801561040b5781602001600182028038833980820191505090505b50610415565b5050565b61041d6107c5565b73ffffffffffffffffffffffffffffffffffffffff163373ffffffffffffffffffffffffffffffffffffffff161461045457600080fd5b6000610461848484610ae2565b60ff161461046e57610536565b60006005600085815260200190815260200160002060009054906101000a900473ffffffffffffffffffffffffffffffffffffffff16905060006002846040516020018082805190602001908083835b602083106104e157805182526020820191506020810190506020830392506104be565b6001836020036101000a0380198251168184511680821785525050505050509050019150506040516020818303038152906040528051906020012060001c8161052657fe5b0690506105338282610c12565b50505b6005600084815260200190815260200160002060006101000a81549073ffffffffffffffffffffffffffffffffffffffff0219169055505050565b600061057b613797565b600660003373ffffffffffffffffffffffffffffffffffffffff1673ffffffffffffffffffffffffffffffffffffffff1681526020019081526020016000206040518060400160405290816000820160009054906101000a900460ff1615151515815260200160018201548152505090506000816020015114156106ec57828160000190151590811515815250503481602001818152505080600660003373ffffffffffffffffffffffffffffffffffffffff1673ffffffffffffffffffffffffffffffffffffffff16815260200190815260200160002060008201518160000160006101000a81548160ff0219169083151502179055506020820151816001015590505060006106926000600162030d40610de8565b9050336005600083815260200190815260200160002060006101000a81548173ffffffffffffffffffffffffffffffffffffffff021916908373ffffffffffffffffffffffffffffffffffffffff16021790555050610755565b7f0a57a1b34cbb6b1e06b8b22be21efd71de17250f818bad53ccdc7af9135351996040518080602001828103825260108152602001807f416c726561647920506c6179696e67210000000000000000000000000000000081525060200191505060405180910390a15b6001915050919050565b60056020528060005260406000206000915054906101000a900473ffffffffffffffffffffffffffffffffffffffff1681565b60066020528060005260406000206000915090508060000160009054906101000a900460ff16908060010154905082565b565b60008073ffffffffffffffffffffffffffffffffffffffff16600160009054906101000a900473ffffffffffffffffffffffffffffffffffffffff1673ffffffffffffffffffffffffffffffffffffffff16148061084d5750600061084b600160009054906101000a900473ffffffffffffffffffffffffffffffffffffffff16611383565b145b1561085e5761085c600061138e565b505b600160009054906101000a900473ffffffffffffffffffffffffffffffffffffffff1673ffffffffffffffffffffffffffffffffffffffff166338cc48316040518163ffffffff1660e01b8152600401602060405180830381600087803b1580156108c857600080fd5b505af11580156108dc573d6000803e3d6000fd5b505050506040513d60208110156108f257600080fd5b810190808051906020019092919050505073ffffffffffffffffffffffffffffffffffffffff166000809054906101000a900473ffffffffffffffffffffffffffffffffffffffff1673ffffffffffffffffffffffffffffffffffffffff1614610a3b57600160009054906101000a900473ffffffffffffffffffffffffffffffffffffffff1673ffffffffffffffffffffffffffffffffffffffff166338cc48316040518163ffffffff1660e01b8152600401602060405180830381600087803b1580156109c057600080fd5b505af11580156109d4573d6000803e3d6000fd5b505050506040513d60208110156109ea57600080fd5b81019080805190602001909291905050506000806101000a81548173ffffffffffffffffffffffffffffffffffffffff021916908373ffffffffffffffffffffffffffffffffffffffff1602179055505b6000809054906101000a900473ffffffffffffffffffffffffffffffffffffffff1673ffffffffffffffffffffffffffffffffffffffff1663c281d19e6040518163ffffffff1660e01b815260040160206040518083038186803b158015610aa257600080fd5b505afa158015610ab6573d6000803e3d6000fd5b505050506040513d6020811015610acc57600080fd5b8101908080519060200190929190505050905090565b60007f4c0000000000000000000000000000000000000000000000000000000000000082600081518110610b1257fe5b602001015160f81c60f81b7effffffffffffffffffffffffffffffffffffffffffffffffffffffffffffff1916141580610ba557507f500000000000000000000000000000000000000000000000000000000000000082600181518110610b7557fe5b602001015160f81c60f81b7effffffffffffffffffffffffffffffffffffffffffffffffffffffffffffff191614155b80610bd15750600160ff1682600281518110610bbd57fe5b602001015160f81c60f81b60f81c60ff1614155b15610bdf5760019050610c0b565b6000610bf4838686610bef61139f565b611441565b905080610c05576002915050610c0b565b60009150505b9392505050565b6000809050610c1f613797565b600660008573ffffffffffffffffffffffffffffffffffffffff1673ffffffffffffffffffffffffffffffffffffffff1681526020019081526020016000206040518060400160405290816000820160009054906101000a900460ff1615151515815260200160018201548152505090506000808414610ca0576001610ca3565b60005b9050801515826000015115151415610d14576001925060006002836020015102905060008690508073ffffffffffffffffffffffffffffffffffffffff166108fc839081150290604051600060405180830381858888f19350505050158015610d10573d6000803e3d6000fd5b5050505b600660008673ffffffffffffffffffffffffffffffffffffffff1673ffffffffffffffffffffffffffffffffffffffff168152602001908152602001600020600080820160006101000a81549060ff0219169055600182016000905550507f5b29a57348de5e70d48abf9fbdf5094bb6cff88a1da40e6128c9cfa22703455a8584604051808373ffffffffffffffffffffffffffffffffffffffff1673ffffffffffffffffffffffffffffffffffffffff168152602001821515151581526020019250505060405180910390a15050505050565b60008083118015610dfa575060208311155b610e0357600080fd5b600a84029350606060016040519080825280601f01601f191660200182016040528015610e3f5781602001600182028038833980820191505090505b5090508360f81b81600081518110610e5357fe5b60200101907effffffffffffffffffffffffffffffffffffffffffffffffffffffffffffff1916908160001a905350606060206040519080825280601f01601f191660200182016040528015610eb85781602001600182028038833980820191505090505b509050606060206040519080825280601f01601f191660200182016040528015610ef15781602001600182028038833980820191505090505b5090506000610efe611aec565b905060208352424118600143034018602084015260208252806020830152606060206040519080825280601f01601f191660200182016040528015610f525781602001600182028038833980820191505090505b509050886020820152606060086040519080825280601f01601f191660200182016040528015610f915781602001600182028038833980820191505090505b509050610fa48260186008846000611e09565b50610fad6137b3565b604051806080016040528087815260200188815260200186815260200184815250905060006110126040518060400160405280600681526020017f72616e646f6d0000000000000000000000000000000000000000000000000000815250838c611e68565b9050606060086040519080825280601f01601f19166020018201604052801561104a5781602001600182028038833980820191505090505b50905060208401517f0100000000000000000000000000000000000000000000000000000000000000810460278301537e01000000000000000000000000000000000000000000000000000000000000810460268301537d010000000000000000000000000000000000000000000000000000000000810460258301537c0100000000000000000000000000000000000000000000000000000000810460248301537b01000000000000000000000000000000000000000000000000000000810460238301537a01000000000000000000000000000000000000000000000000000081046022830153790100000000000000000000000000000000000000000000000000810460218301537801000000000000000000000000000000000000000000000000810460208301535061137082828560016004811061118957fe5b602002015160028760006004811061119d57fe5b60200201516040518082805190602001908083835b602083106111d557805182526020820191506020810190506020830392506111b2565b6001836020036101000a038019825116818451168082178552505050505050905001915050602060405180830381855afa158015611217573d6000803e3d6000fd5b5050506040513d602081101561122c57600080fd5b81019080805190602001909291905050508760026004811061124a57fe5b60200201516040516020018085805190602001908083835b602083106112855780518252602082019150602081019050602083039250611262565b6001836020036101000a03801982511681845116808217855250505050505090500184805190602001908083835b602083106112d657805182526020820191506020810190506020830392506112b3565b6001836020036101000a03801982511681845116808217855250505050505090500183815260200182805190602001908083835b6020831061132d578051825260208201915060208101905060208303925061130a565b6001836020036101000a038019825116818451168082178552505050505050905001945050505050604051602081830303815290604052805190602001206121d5565b8199505050505050505050509392505050565b6000813b9050919050565b60006113986121f1565b9050919050565b606060028054600181600116156101000203166002900480601f0160208091040260200160405190810160405280929190818152602001828054600181600116156101000203166002900480156114375780601f1061140c57610100808354040283529160200191611437565b820191906000526020600020905b81548152906001019060200180831161141a57829003601f168201915b5050505050905090565b600080602060028760458151811061145557fe5b602001015160f81c60f81b60f81c60ff1601604401019050606060206040519080825280601f01601f1916602001820160405280156114a35781602001600182028038833980820191505090505b5090506114b587836020846000611e09565b50600284876040516020018083805190602001908083835b602083106114f057805182526020820191506020810190506020830392506114cd565b6001836020036101000a038019825116818451168082178552505050505050905001828152602001925050506040516020818303038152906040526040518082805190602001908083835b6020831061155e578051825260208201915060208101905060208303925061153b565b6001836020036101000a038019825116818451168082178552505050505050905001915050602060405180830381855afa1580156115a0573d6000803e3d6000fd5b5050506040513d60208110156115b557600080fd5b8101908080519060200190929190505050604051602001808281526020019150506040516020818303038152906040528051906020012081805190602001201461160457600092505050611ae4565b6060600288600160498601018151811061161a57fe5b602001015160f81c60f81b60f81c60ff16016040519080825280601f01601f19166020018201604052801561165e5781602001600182028038833980820191505090505b50905061167388604985018351846000611e09565b5061173e6002826040518082805190602001908083835b602083106116ad578051825260208201915060208101905060208303925061168a565b6001836020036101000a038019825116818451168082178552505050505050905001915050602060405180830381855afa1580156116ef573d6000803e3d6000fd5b5050506040513d602081101561170457600080fd5b8101908080519060200190929190505050878a600860208801018151811061172857fe5b602001015160f81c60f81b60f81c60ff16612748565b61174e5760009350505050611ae4565b606060296040519080825280601f01601f1916602001820160405280156117845781602001600182028038833980820191505090505b50905061179989602086016029846000611e09565b506060604080519080825280601f01601f1916602001820160405280156117cf5781602001600182028038833980820191505090505b50905060006041845160296020890101010190506117f58b604083036040856000611e09565b5060006002836040518082805190602001908083835b6020831061182e578051825260208201915060208101905060208303925061180b565b6001836020036101000a038019825116818451168082178552505050505050905001915050602060405180830381855afa158015611870573d6000803e3d6000fd5b5050506040513d602081101561188557600080fd5b8101908080519060200190929190505050905083816040516020018083805190602001908083835b602083106118d057805182526020820191506020810190506020830392506118ad565b6001836020036101000a0380198251168184511680821785525050505050509050018281526020019250505060405160208183030381529060405280519060200120600360008d815260200190815260200160002054141561194857600360008c815260200190815260200160002060009055611958565b6000975050505050505050611ae4565b606060496040519080825280601f01601f19166020018201604052801561198e5781602001600182028038833980820191505090505b5090506119a08d896049846000611e09565b50611a496002826040518082805190602001908083835b602083106119da57805182526020820191506020810190506020830392506119b7565b6001836020036101000a038019825116818451168082178552505050505050905001915050602060405180830381855afa158015611a1c573d6000803e3d6000fd5b5050506040513d6020811015611a3157600080fd5b810190808051906020019092919050505087866127f8565b611a5e57600098505050505050505050611ae4565b6004600083815260200190815260200160002060009054906101000a900460ff16611ab857611a8d8d846129b6565b6004600084815260200190815260200160002060006101000a81548160ff0219169083151502179055505b6004600083815260200190815260200160002060009054906101000a900460ff16985050505050505050505b949350505050565b60008073ffffffffffffffffffffffffffffffffffffffff16600160009054906101000a900473ffffffffffffffffffffffffffffffffffffffff1673ffffffffffffffffffffffffffffffffffffffff161480611b7457506000611b72600160009054906101000a900473ffffffffffffffffffffffffffffffffffffffff16611383565b145b15611b8557611b83600061138e565b505b600160009054906101000a900473ffffffffffffffffffffffffffffffffffffffff1673ffffffffffffffffffffffffffffffffffffffff166338cc48316040518163ffffffff1660e01b8152600401602060405180830381600087803b158015611bef57600080fd5b505af1158015611c03573d6000803e3d6000fd5b505050506040513d6020811015611c1957600080fd5b810190808051906020019092919050505073ffffffffffffffffffffffffffffffffffffffff166000809054906101000a900473ffffffffffffffffffffffffffffffffffffffff1673ffffffffffffffffffffffffffffffffffffffff1614611d6257600160009054906101000a900473ffffffffffffffffffffffffffffffffffffffff1673ffffffffffffffffffffffffffffffffffffffff166338cc48316040518163ffffffff1660e01b8152600401602060405180830381600087803b158015611ce757600080fd5b505af1158015611cfb573d6000803e3d6000fd5b505050506040513d6020811015611d1157600080fd5b81019080805190602001909291905050506000806101000a81548173ffffffffffffffffffffffffffffffffffffffff021916908373ffffffffffffffffffffffffffffffffffffffff1602179055505b6000809054906101000a900473ffffffffffffffffffffffffffffffffffffffff1673ffffffffffffffffffffffffffffffffffffffff1663abaa5f3e6040518163ffffffff1660e01b815260040160206040518083038186803b158015611dc957600080fd5b505afa158015611ddd573d6000803e3d6000fd5b505050506040513d6020811015611df357600080fd5b8101908080519060200190929190505050905090565b6060600082850190508084511015611e2057600080fd5b600086602001905060008460200190505b868860200101821015611e595781890151808288015250602082019150602081019050611e31565b85935050505095945050505050565b60008073ffffffffffffffffffffffffffffffffffffffff16600160009054906101000a900473ffffffffffffffffffffffffffffffffffffffff1673ffffffffffffffffffffffffffffffffffffffff161480611ef057506000611eee600160009054906101000a900473ffffffffffffffffffffffffffffffffffffffff16611383565b145b15611f0157611eff600061138e565b505b600160009054906101000a900473ffffffffffffffffffffffffffffffffffffffff1673ffffffffffffffffffffffffffffffffffffffff166338cc48316040518163ffffffff1660e01b8152600401602060405180830381600087803b158015611f6b57600080fd5b505af1158015611f7f573d6000803e3d6000fd5b505050506040513d6020811015611f9557600080fd5b810190808051906020019092919050505073ffffffffffffffffffffffffffffffffffffffff166000809054906101000a900473ffffffffffffffffffffffffffffffffffffffff1673ffffffffffffffffffffffffffffffffffffffff16146120de57600160009054906101000a900473ffffffffffffffffffffffffffffffffffffffff1673ffffffffffffffffffffffffffffffffffffffff166338cc48316040518163ffffffff1660e01b8152600401602060405180830381600087803b15801561206357600080fd5b505af1158015612077573d6000803e3d6000fd5b505050506040513d602081101561208d57600080fd5b81019080805190602001909291905050506000806101000a81548173ffffffffffffffffffffffffffffffffffffffff021916908373ffffffffffffffffffffffffffffffffffffffff1602179055505b6060600460405190808252806020026020018201604052801561211557816020015b60608152602001906001900390816121005790505b5090508360006004811061212557fe5b60200201518160008151811061213757fe5b60200260200101819052508360016004811061214f57fe5b60200201518160018151811061216157fe5b60200260200101819052508360026004811061217957fe5b60200201518160028151811061218b57fe5b6020026020010181905250836003600481106121a357fe5b6020020151816003815181106121b557fe5b60200260200101819052506121cb858285612dce565b9150509392505050565b8060036000848152602001908152602001600020819055505050565b600080612211731d3b2638a7cc9f2cb3d298a3da7a90b67e5506ed611383565b11156122b357731d3b2638a7cc9f2cb3d298a3da7a90b67e5506ed600160006101000a81548173ffffffffffffffffffffffffffffffffffffffff021916908373ffffffffffffffffffffffffffffffffffffffff1602179055506122aa6040518060400160405280600b81526020017f6574685f6d61696e6e6574000000000000000000000000000000000000000000815250613330565b60019050612745565b60006122d273c03a2615d5efaf5f49f60b7bb6583eaec212fdf1611383565b11156123745773c03a2615d5efaf5f49f60b7bb6583eaec212fdf1600160006101000a81548173ffffffffffffffffffffffffffffffffffffffff021916908373ffffffffffffffffffffffffffffffffffffffff16021790555061236b6040518060400160405280600c81526020017f6574685f726f707374656e330000000000000000000000000000000000000000815250613330565b60019050612745565b600061239373b7a07bcf2ba2f2703b24c0691b5278999c59ac7e611383565b11156124355773b7a07bcf2ba2f2703b24c0691b5278999c59ac7e600160006101000a81548173ffffffffffffffffffffffffffffffffffffffff021916908373ffffffffffffffffffffffffffffffffffffffff16021790555061242c6040518060400160405280600981526020017f6574685f6b6f76616e0000000000000000000000000000000000000000000000815250613330565b60019050612745565b600061245473146500cfd35b22e4a392fe0adc06de1a1368ed48611383565b11156124f65773146500cfd35b22e4a392fe0adc06de1a1368ed48600160006101000a81548173ffffffffffffffffffffffffffffffffffffffff021916908373ffffffffffffffffffffffffffffffffffffffff1602179055506124ed6040518060400160405280600b81526020017f6574685f72696e6b656279000000000000000000000000000000000000000000815250613330565b60019050612745565b600061251573a2998efd205fb9d4b4963afb70778d6354ad3a41611383565b11156125b75773a2998efd205fb9d4b4963afb70778d6354ad3a41600160006101000a81548173ffffffffffffffffffffffffffffffffffffffff021916908373ffffffffffffffffffffffffffffffffffffffff1602179055506125ae6040518060400160405280600a81526020017f6574685f676f65726c6900000000000000000000000000000000000000000000815250613330565b60019050612745565b60006125d6736f485c8bf6fc43ea212e93bbf8ce046c7f1cb475611383565b111561263a57736f485c8bf6fc43ea212e93bbf8ce046c7f1cb475600160006101000a81548173ffffffffffffffffffffffffffffffffffffffff021916908373ffffffffffffffffffffffffffffffffffffffff16021790555060019050612745565b60006126597320e12a1f859b3feae5fb2a0a32c18f5a65555bbf611383565b11156126bd577320e12a1f859b3feae5fb2a0a32c18f5a65555bbf600160006101000a81548173ffffffffffffffffffffffffffffffffffffffff021916908373ffffffffffffffffffffffffffffffffffffffff16021790555060019050612745565b60006126dc7351efaf4c8b3c9afbd5ab9f4bbc82784ab6ef8faa611383565b1115612740577351efaf4c8b3c9afbd5ab9f4bbc82784ab6ef8faa600160006101000a81548173ffffffffffffffffffffffffffffffffffffffff021916908373ffffffffffffffffffffffffffffffffffffffff16021790555060019050612745565b600090505b90565b600080600190508284511461275c57600080fd5b60008090505b838110156127ec5784818151811061277657fe5b602001015160f81c60f81b7effffffffffffffffffffffffffffffffffffffffffffffffffffffffffffff19168682602081106127af57fe5b1a60f81b7effffffffffffffffffffffffffffffffffffffffffffffffffffffffffffff1916146127df57600091505b8080600101915050612762565b50809150509392505050565b6000806000806000606060206040519080825280601f01601f1916602001820160405280156128365781602001600182028038833980820191505090505b509050600060208960038151811061284a57fe5b602001015160f81c60f81b60f81c60ff1603600401905061287089826020856000611e09565b9150606060206040519080825280601f01601f1916602001820160405280156128a85781602001600182028038833980820191505090505b5090506022820191506128e48a60208c60018603815181106128c657fe5b602001015160f81c60f81b60f81c60ff160384016020846000611e09565b905060208301519450602081015193506129018b601b878761334a565b80975081985050508573ffffffffffffffffffffffffffffffffffffffff16898051906020012060001c73ffffffffffffffffffffffffffffffffffffffff1614156129575760019750505050505050506129af565b6129648b601c878761334a565b80975081985050508573ffffffffffffffffffffffffffffffffffffffff16898051906020012060001c73ffffffffffffffffffffffffffffffffffffffff16149750505050505050505b9392505050565b600080606060028560018601815181106129cc57fe5b602001015160f81c60f81b60f81c60ff16016040519080825280601f01601f191660200182016040528015612a105781602001600182028038833980820191505090505b509050612a2285858351846000611e09565b506060604080519080825280601f01601f191660200182016040528015612a585781602001600182028038833980820191505090505b509050612a6b8660046040846000611e09565b50606060626040519080825280601f01601f191660200182016040528015612aa25781602001600182028038833980820191505090505b509050600160f81b81600081518110612ab757fe5b60200101907effffffffffffffffffffffffffffffffffffffffffffffffffffffffffffff1916908160001a905350612af887604188036041846001611e09565b5060606040518060400160405280602081526020017ffd94fa71bc0ba10d39d464d0d8f465efeef0a2764e3887fcc9df41ded20f505c8152509050612b438160006020856042611e09565b50612bec6002836040518082805190602001908083835b60208310612b7d5780518252602082019150602081019050602083039250612b5a565b6001836020036101000a038019825116818451168082178552505050505050905001915050602060405180830381855afa158015612bbf573d6000803e3d6000fd5b5050506040513d6020811015612bd457600080fd5b810190808051906020019092919050505085856127f8565b945084612c0157600095505050505050612dc8565b606060405180606001604052806040815260200161389a604091399050606060426040519080825280601f01601f191660200182016040528015612c545781602001600182028038833980820191505090505b50905060fe60f81b81600081518110612c6957fe5b60200101907effffffffffffffffffffffffffffffffffffffffffffffffffffffffffffff1916908160001a905350612ca88a60036041846001611e09565b50606060028b604581518110612cba57fe5b602001015160f81c60f81b60f81c60ff16016040519080825280601f01601f191660200182016040528015612cfe5781602001600182028038833980820191505090505b509050612d118b60448351846000611e09565b50612dba6002836040518082805190602001908083835b60208310612d4b5780518252602082019150602081019050602083039250612d28565b6001836020036101000a038019825116818451168082178552505050505050905001915050602060405180830381855afa158015612d8d573d6000803e3d6000fd5b5050506040513d6020811015612da257600080fd5b810190808051906020019092919050505082856127f8565b975087985050505050505050505b92915050565b60008073ffffffffffffffffffffffffffffffffffffffff16600160009054906101000a900473ffffffffffffffffffffffffffffffffffffffff1673ffffffffffffffffffffffffffffffffffffffff161480612e5657506000612e54600160009054906101000a900473ffffffffffffffffffffffffffffffffffffffff16611383565b145b15612e6757612e65600061138e565b505b600160009054906101000a900473ffffffffffffffffffffffffffffffffffffffff1673ffffffffffffffffffffffffffffffffffffffff166338cc48316040518163ffffffff1660e01b8152600401602060405180830381600087803b158015612ed157600080fd5b505af1158015612ee5573d6000803e3d6000fd5b505050506040513d6020811015612efb57600080fd5b810190808051906020019092919050505073ffffffffffffffffffffffffffffffffffffffff166000809054906101000a900473ffffffffffffffffffffffffffffffffffffffff1673ffffffffffffffffffffffffffffffffffffffff161461304457600160009054906101000a900473ffffffffffffffffffffffffffffffffffffffff1673ffffffffffffffffffffffffffffffffffffffff166338cc48316040518163ffffffff1660e01b8152600401602060405180830381600087803b158015612fc957600080fd5b505af1158015612fdd573d6000803e3d6000fd5b505050506040513d6020811015612ff357600080fd5b81019080805190602001909291905050506000806101000a81548173ffffffffffffffffffffffffffffffffffffffff021916908373ffffffffffffffffffffffffffffffffffffffff1602179055505b60008060009054906101000a900473ffffffffffffffffffffffffffffffffffffffff1673ffffffffffffffffffffffffffffffffffffffff16632ef3accc86856040518363ffffffff1660e01b81526004018080602001838152602001828103825284818151815260200191508051906020019080838360005b838110156130da5780820151818401526020810190506130bf565b50505050905090810190601f1680156131075780820380516001836020036101000a031916815260200191505b509350505050602060405180830381600087803b15801561312757600080fd5b505af115801561313b573d6000803e3d6000fd5b505050506040513d602081101561315157600080fd5b81019080805190602001909291905050509050823a02670de0b6b3a764000001811115613184576000801b915050613329565b606061318f8561338e565b90506000809054906101000a900473ffffffffffffffffffffffffffffffffffffffff1673ffffffffffffffffffffffffffffffffffffffff1663c55c1cb68360008985896040518663ffffffff1660e01b8152600401808581526020018060200180602001848152602001838103835286818151815260200191508051906020019080838360005b83811015613233578082015181840152602081019050613218565b50505050905090810190601f1680156132605780820380516001836020036101000a031916815260200191505b50838103825285818151815260200191508051906020019080838360005b8381101561329957808201518184015260208101905061327e565b50505050905090810190601f1680156132c65780820380516001836020036101000a031916815260200191505b5096505050505050506020604051808303818588803b1580156132e857600080fd5b505af11580156132fc573d6000803e3d6000fd5b50505050506040513d602081101561331357600080fd5b8101908080519060200190929190505050925050505b9392505050565b80600290805190602001906133469291906137da565b5050565b60008060008060405188815287602082015286604082015285606082015260208160808360006001610bb8f192508051915050818193509350505094509492505050565b606061339861340e565b6133a061385a565b6133ac8161040061341a565b6133b581613464565b60008090505b83518110156133f7576133ea8482815181106133d357fe5b60200260200101518361347290919063ffffffff16565b80806001019150506133bb565b5061340181613497565b8060000151915050919050565b60405180590338823950565b600081905060006020828161342b57fe5b0614613444576020818161343b57fe5b06602003810190505b808360200181815250506040518084526000815281810160405250505050565b61346f8160046134a5565b50565b61347f82600283516134c6565b613492818361360690919063ffffffff16565b505050565b6134a28160076134a5565b50565b6134c2601f60058360ff16901b17836136b190919063ffffffff16565b5050565b601781116134f2576134ed8160058460ff16901b60ff1617846136b190919063ffffffff16565b613601565b60ff811161353357613517601860058460ff16901b17846136b190919063ffffffff16565b61352d816001856136f19092919063ffffffff16565b50613600565b61ffff811161357557613559601960058460ff16901b17846136b190919063ffffffff16565b61356f816002856136f19092919063ffffffff16565b506135ff565b63ffffffff81116135b95761359d601a60058460ff16901b17846136b190919063ffffffff16565b6135b3816004856136f19092919063ffffffff16565b506135fe565b67ffffffffffffffff81116135fd576135e5601b60058460ff16901b17846136b190919063ffffffff16565b6135fb816008856136f19092919063ffffffff16565b505b5b5b5b5b505050565b61360e61385a565b8260200151836000015151835101111561363e5761363d83600261363786602001518651613758565b02613774565b5b60008060008451905085518051602081830101945086518101825260208701935050505b602081106136855781518352602083019250602082019150602081039050613662565b60006001826020036101000a039050801983511681855116818117865250508694505050505092915050565b816020015160018360000151510111156136d7576136d6826002846020015102613774565b5b815180516020818301018381536001820183525050505050565b6136f961385a565b83602001518460000151518301111561372757613726846002613720876020015186613758565b02613774565b5b60006001836101000a0390508451805184818301018684198251161781528582018352505050849150509392505050565b60008183111561376a5782905061376e565b8190505b92915050565b606082600001519050613787838361341a565b6137918382613606565b50505050565b6040518060400160405280600015158152602001600081525090565b60405180608001604052806004905b60608152602001906001900390816137c25790505090565b828054600181600116156101000203166002900490600052602060002090601f016020900481019282601f1061381b57805160ff1916838001178555613849565b82800160010185558215613849579182015b8281111561384857825182559160200191906001019061382d565b5b5090506138569190613874565b5090565b604051806040016040528060608152602001600081525090565b61389691905b8082111561389257600081600090555060010161387a565b5090565b9056fe7fb956469c5c9b89840d55b43537e66a98dd4811ea0a27224272c2e5622911e8537a2f8e86a46baec82864e98dd01e9ccc2f8bc5dfc9cbe5a91a290498dd96e4a265627a7a723158201f01ee4de6fba8e981c50c323e7ccd5a47b5895d2cb9551ddb2525d71b590f0f64736f6c634300050c0032",
  "source": "pragma solidity 0.5.12;\r\n\r\nimport \"./provableAPI.sol\";\r\n\r\ncontract CoinFlip is usingProvable\r\n{\r\n\tmapping(bytes32 => address) public userAddressMap;\r\n\r\n\tmapping(address => UserData) public userDataMap;\r\n\r\n\tstruct UserData\r\n\t{\r\n\t\tbool headTailFlag;\r\n\t\tuint betValue;\r\n\t}\r\n\r\n\tevent betResults(address userAddress, bool wonFlag);\r\n\r\n\tevent errorMessage(string message);\r\n\r\n\tconstructor() public\r\n\t{\r\n\t\tprovable_setProof(proofType_Ledger);\r\n\t}\r\n\r\n\tfunction __callback(bytes32 inQueryId, string memory inResult, bytes memory inProof) public\r\n\t{\r\n\t\trequire(msg.sender == provable_cbAddress());\r\n\t\tif (provable_randomDS_proofVerify__returnCode(inQueryId, inResult, inProof) != 0)\r\n\t\t{\r\n\t\t\t// Emit some error to the front end or ignore if this was someone trying to fake a win.  Need to look into this more.\r\n\t\t}\r\n\t\telse\r\n\t\t{\r\n\t\t\taddress theUserAddress = userAddressMap[inQueryId];\r\n\t\t\tuint256 theRandomNumber = uint256(keccak256(abi.encodePacked(inResult))) % 2;\r\n\t\t\tcalcWinLoss(theUserAddress, theRandomNumber);\r\n\t\t}\r\n\r\n\t\tdelete(userAddressMap[inQueryId]);\r\n\t}\r\n\r\n\tfunction bet(bool inHeadTailFlag) public payable returns(bool successFlag)\r\n\t{\r\n\t\tUserData memory theUserData = userDataMap[msg.sender];\r\n\t\tif (theUserData.betValue == 0)\r\n\t\t{\r\n\t\t\ttheUserData.headTailFlag = inHeadTailFlag;\r\n\t\t\ttheUserData.betValue = msg.value;\r\n\t\t\tuserDataMap[msg.sender] = theUserData;\r\n\r\n\t\t\tbytes32 theQueryId = provable_newRandomDSQuery(0, 1, 200000);\r\n\t\t\tuserAddressMap[theQueryId] = msg.sender;\r\n\t\t}\r\n\t\telse\r\n\t\t{\r\n\t\t\temit errorMessage(\"Already Playing!\");\r\n\t\t}\r\n\r\n\t\treturn (true);\r\n\t}\r\n\r\n\tfunction depositETH() public payable\r\n\t{\r\n\t}\r\n\r\n\tfunction calcWinLoss(address inUserAddress, uint256 inRandomNumber) private\r\n\t{\r\n\t\tbool theWonFlag = false;\r\n\r\n\t\tUserData memory theUserData = userDataMap[inUserAddress];\r\n\t\tbool theRandomHeadTailFlag = inRandomNumber == 0 ? false : true;\r\n\t\tif (theUserData.headTailFlag == theRandomHeadTailFlag)\r\n\t\t{\r\n\t\t\ttheWonFlag = true;\r\n\t\t\tuint theValue = theUserData.betValue * 2;\r\n\t\t\taddress payable theUserAddress = address(uint160(inUserAddress));\r\n\t\t\ttheUserAddress.transfer(theValue);\r\n\t\t}\r\n\r\n\t\tdelete(userDataMap[inUserAddress]);\r\n\r\n\t\temit betResults(inUserAddress, theWonFlag);\r\n\t}\r\n}\r\n",
  "sourcePath": "C:/Users/glenm/Development/com/ivanontech/academy/coin-flip/coin-flip-eth/contracts/CoinFlip.sol",
  "compiler": {
    "name": "solc",
    "version": "0.5.12+commit.7709ece9.Emscripten.clang"
  },
  "schemaVersion": "3.2.3",
  "updatedAt": "2020-10-16T00:08:04.980Z",
  "networkType": "ethereum",
  "devdoc": {
    "methods": {
      "__callback(bytes32,string)": {
        "details": "The following `__callback` functions are just placeholders ideally     meant to be defined in child contract when proofs are used.     The function bodies simply silence compiler warnings."
      }
    }
  },
  "userdoc": {
    "methods": {}
  }
}